{
  "_format": "hh-sol-artifact-1",
  "contractName": "PrivateERC721Token",
  "sourceName": "contracts/PrivateContract.sol",
  "abi": [
    {
      "inputs": [],
      "stateMutability": "nonpayable",
      "type": "constructor"
    },
    {
      "inputs": [],
      "name": "AccessControlBadConfirmation",
      "type": "error"
    },
    {
      "inputs": [
        {
          "internalType": "address",
          "name": "account",
          "type": "address"
        },
        {
          "internalType": "bytes32",
          "name": "neededRole",
          "type": "bytes32"
        }
      ],
      "name": "AccessControlUnauthorizedAccount",
      "type": "error"
    },
    {
      "inputs": [
        {
          "internalType": "address",
          "name": "sender",
          "type": "address"
        },
        {
          "internalType": "uint256",
          "name": "tokenId",
          "type": "uint256"
        },
        {
          "internalType": "address",
          "name": "owner",
          "type": "address"
        }
      ],
      "name": "ERC721IncorrectOwner",
      "type": "error"
    },
    {
      "inputs": [
        {
          "internalType": "address",
          "name": "operator",
          "type": "address"
        },
        {
          "internalType": "uint256",
          "name": "tokenId",
          "type": "uint256"
        }
      ],
      "name": "ERC721InsufficientApproval",
      "type": "error"
    },
    {
      "inputs": [
        {
          "internalType": "address",
          "name": "approver",
          "type": "address"
        }
      ],
      "name": "ERC721InvalidApprover",
      "type": "error"
    },
    {
      "inputs": [
        {
          "internalType": "address",
          "name": "operator",
          "type": "address"
        }
      ],
      "name": "ERC721InvalidOperator",
      "type": "error"
    },
    {
      "inputs": [
        {
          "internalType": "address",
          "name": "owner",
          "type": "address"
        }
      ],
      "name": "ERC721InvalidOwner",
      "type": "error"
    },
    {
      "inputs": [
        {
          "internalType": "address",
          "name": "receiver",
          "type": "address"
        }
      ],
      "name": "ERC721InvalidReceiver",
      "type": "error"
    },
    {
      "inputs": [
        {
          "internalType": "address",
          "name": "sender",
          "type": "address"
        }
      ],
      "name": "ERC721InvalidSender",
      "type": "error"
    },
    {
      "inputs": [
        {
          "internalType": "uint256",
          "name": "tokenId",
          "type": "uint256"
        }
      ],
      "name": "ERC721NonexistentToken",
      "type": "error"
    },
    {
      "anonymous": false,
      "inputs": [
        {
          "indexed": true,
          "internalType": "address",
          "name": "owner",
          "type": "address"
        },
        {
          "indexed": true,
          "internalType": "address",
          "name": "approved",
          "type": "address"
        },
        {
          "indexed": true,
          "internalType": "uint256",
          "name": "tokenId",
          "type": "uint256"
        }
      ],
      "name": "Approval",
      "type": "event"
    },
    {
      "anonymous": false,
      "inputs": [
        {
          "indexed": true,
          "internalType": "address",
          "name": "owner",
          "type": "address"
        },
        {
          "indexed": true,
          "internalType": "address",
          "name": "operator",
          "type": "address"
        },
        {
          "indexed": false,
          "internalType": "bool",
          "name": "approved",
          "type": "bool"
        }
      ],
      "name": "ApprovalForAll",
      "type": "event"
    },
    {
      "anonymous": false,
      "inputs": [
        {
          "indexed": true,
          "internalType": "bytes32",
          "name": "role",
          "type": "bytes32"
        },
        {
          "indexed": true,
          "internalType": "bytes32",
          "name": "previousAdminRole",
          "type": "bytes32"
        },
        {
          "indexed": true,
          "internalType": "bytes32",
          "name": "newAdminRole",
          "type": "bytes32"
        }
      ],
      "name": "RoleAdminChanged",
      "type": "event"
    },
    {
      "anonymous": false,
      "inputs": [
        {
          "indexed": true,
          "internalType": "bytes32",
          "name": "role",
          "type": "bytes32"
        },
        {
          "indexed": true,
          "internalType": "address",
          "name": "account",
          "type": "address"
        },
        {
          "indexed": true,
          "internalType": "address",
          "name": "sender",
          "type": "address"
        }
      ],
      "name": "RoleGranted",
      "type": "event"
    },
    {
      "anonymous": false,
      "inputs": [
        {
          "indexed": true,
          "internalType": "bytes32",
          "name": "role",
          "type": "bytes32"
        },
        {
          "indexed": true,
          "internalType": "address",
          "name": "account",
          "type": "address"
        },
        {
          "indexed": true,
          "internalType": "address",
          "name": "sender",
          "type": "address"
        }
      ],
      "name": "RoleRevoked",
      "type": "event"
    },
    {
      "anonymous": false,
      "inputs": [
        {
          "indexed": true,
          "internalType": "address",
          "name": "from",
          "type": "address"
        },
        {
          "indexed": true,
          "internalType": "address",
          "name": "to",
          "type": "address"
        },
        {
          "indexed": true,
          "internalType": "uint256",
          "name": "tokenId",
          "type": "uint256"
        }
      ],
      "name": "Transfer",
      "type": "event"
    },
    {
      "inputs": [],
      "name": "DEFAULT_ADMIN_ROLE",
      "outputs": [
        {
          "internalType": "bytes32",
          "name": "",
          "type": "bytes32"
        }
      ],
      "stateMutability": "view",
      "type": "function"
    },
    {
      "inputs": [],
      "name": "MINTER_ROLE",
      "outputs": [
        {
          "internalType": "bytes32",
          "name": "",
          "type": "bytes32"
        }
      ],
      "stateMutability": "view",
      "type": "function"
    },
    {
      "inputs": [
        {
          "internalType": "address",
          "name": "to",
          "type": "address"
        },
        {
          "internalType": "uint256",
          "name": "tokenId",
          "type": "uint256"
        }
      ],
      "name": "approve",
      "outputs": [],
      "stateMutability": "nonpayable",
      "type": "function"
    },
    {
      "inputs": [
        {
          "internalType": "address",
          "name": "owner",
          "type": "address"
        }
      ],
      "name": "balanceOf",
      "outputs": [
        {
          "internalType": "uint256",
          "name": "",
          "type": "uint256"
        }
      ],
      "stateMutability": "view",
      "type": "function"
    },
    {
      "inputs": [
        {
          "internalType": "uint256",
          "name": "tokenId",
          "type": "uint256"
        }
      ],
      "name": "getApproved",
      "outputs": [
        {
          "internalType": "address",
          "name": "",
          "type": "address"
        }
      ],
      "stateMutability": "view",
      "type": "function"
    },
    {
      "inputs": [
        {
          "internalType": "bytes32",
          "name": "role",
          "type": "bytes32"
        }
      ],
      "name": "getRoleAdmin",
      "outputs": [
        {
          "internalType": "bytes32",
          "name": "",
          "type": "bytes32"
        }
      ],
      "stateMutability": "view",
      "type": "function"
    },
    {
      "inputs": [
        {
          "internalType": "address",
          "name": "account",
          "type": "address"
        }
      ],
      "name": "grantMinterRole",
      "outputs": [],
      "stateMutability": "nonpayable",
      "type": "function"
    },
    {
      "inputs": [
        {
          "internalType": "bytes32",
          "name": "role",
          "type": "bytes32"
        },
        {
          "internalType": "address",
          "name": "account",
          "type": "address"
        }
      ],
      "name": "grantRole",
      "outputs": [],
      "stateMutability": "nonpayable",
      "type": "function"
    },
    {
      "inputs": [
        {
          "internalType": "bytes32",
          "name": "role",
          "type": "bytes32"
        },
        {
          "internalType": "address",
          "name": "account",
          "type": "address"
        }
      ],
      "name": "hasRole",
      "outputs": [
        {
          "internalType": "bool",
          "name": "",
          "type": "bool"
        }
      ],
      "stateMutability": "view",
      "type": "function"
    },
    {
      "inputs": [
        {
          "internalType": "address",
          "name": "owner",
          "type": "address"
        },
        {
          "internalType": "address",
          "name": "operator",
          "type": "address"
        }
      ],
      "name": "isApprovedForAll",
      "outputs": [
        {
          "internalType": "bool",
          "name": "",
          "type": "bool"
        }
      ],
      "stateMutability": "view",
      "type": "function"
    },
    {
      "inputs": [
        {
          "internalType": "address",
          "name": "to",
          "type": "address"
        }
      ],
      "name": "mint",
      "outputs": [],
      "stateMutability": "nonpayable",
      "type": "function"
    },
    {
      "inputs": [],
      "name": "name",
      "outputs": [
        {
          "internalType": "string",
          "name": "",
          "type": "string"
        }
      ],
      "stateMutability": "view",
      "type": "function"
    },
    {
      "inputs": [
        {
          "internalType": "uint256",
          "name": "tokenId",
          "type": "uint256"
        }
      ],
      "name": "ownerOf",
      "outputs": [
        {
          "internalType": "address",
          "name": "",
          "type": "address"
        }
      ],
      "stateMutability": "view",
      "type": "function"
    },
    {
      "inputs": [
        {
          "internalType": "bytes32",
          "name": "role",
          "type": "bytes32"
        },
        {
          "internalType": "address",
          "name": "callerConfirmation",
          "type": "address"
        }
      ],
      "name": "renounceRole",
      "outputs": [],
      "stateMutability": "nonpayable",
      "type": "function"
    },
    {
      "inputs": [
        {
          "internalType": "address",
          "name": "account",
          "type": "address"
        }
      ],
      "name": "revokeMinterRole",
      "outputs": [],
      "stateMutability": "nonpayable",
      "type": "function"
    },
    {
      "inputs": [
        {
          "internalType": "bytes32",
          "name": "role",
          "type": "bytes32"
        },
        {
          "internalType": "address",
          "name": "account",
          "type": "address"
        }
      ],
      "name": "revokeRole",
      "outputs": [],
      "stateMutability": "nonpayable",
      "type": "function"
    },
    {
      "inputs": [
        {
          "internalType": "address",
          "name": "from",
          "type": "address"
        },
        {
          "internalType": "address",
          "name": "to",
          "type": "address"
        },
        {
          "internalType": "uint256",
          "name": "tokenId",
          "type": "uint256"
        }
      ],
      "name": "safeTransferFrom",
      "outputs": [],
      "stateMutability": "nonpayable",
      "type": "function"
    },
    {
      "inputs": [
        {
          "internalType": "address",
          "name": "from",
          "type": "address"
        },
        {
          "internalType": "address",
          "name": "to",
          "type": "address"
        },
        {
          "internalType": "uint256",
          "name": "tokenId",
          "type": "uint256"
        },
        {
          "internalType": "bytes",
          "name": "data",
          "type": "bytes"
        }
      ],
      "name": "safeTransferFrom",
      "outputs": [],
      "stateMutability": "nonpayable",
      "type": "function"
    },
    {
      "inputs": [
        {
          "internalType": "address",
          "name": "operator",
          "type": "address"
        },
        {
          "internalType": "bool",
          "name": "approved",
          "type": "bool"
        }
      ],
      "name": "setApprovalForAll",
      "outputs": [],
      "stateMutability": "nonpayable",
      "type": "function"
    },
    {
      "inputs": [
        {
          "internalType": "bytes4",
          "name": "interfaceId",
          "type": "bytes4"
        }
      ],
      "name": "supportsInterface",
      "outputs": [
        {
          "internalType": "bool",
          "name": "",
          "type": "bool"
        }
      ],
      "stateMutability": "view",
      "type": "function"
    },
    {
      "inputs": [],
      "name": "symbol",
      "outputs": [
        {
          "internalType": "string",
          "name": "",
          "type": "string"
        }
      ],
      "stateMutability": "view",
      "type": "function"
    },
    {
      "inputs": [
        {
          "internalType": "uint256",
          "name": "tokenId",
          "type": "uint256"
        }
      ],
      "name": "tokenURI",
      "outputs": [
        {
          "internalType": "string",
          "name": "",
          "type": "string"
        }
      ],
      "stateMutability": "view",
      "type": "function"
    },
    {
      "inputs": [
        {
          "internalType": "address",
          "name": "from",
          "type": "address"
        },
        {
          "internalType": "address",
          "name": "to",
          "type": "address"
        },
        {
          "internalType": "uint256",
          "name": "tokenId",
          "type": "uint256"
        }
      ],
      "name": "transferFrom",
      "outputs": [],
      "stateMutability": "nonpayable",
      "type": "function"
    }
  ],
  "bytecode": "0x608060405234801561001057600080fd5b506040518060400160405280601281526020017f50726976617465455243373231546f6b656e00000000000000000000000000008152506040518060400160405280600381526020017f5056540000000000000000000000000000000000000000000000000000000000815250816000908161008c9190610481565b50806001908161009c9190610481565b5050506100b26000801b336100c060201b60201c565b506000600781905550610553565b60006100d283836101be60201b60201c565b6101b35760016006600085815260200190815260200160002060000160008473ffffffffffffffffffffffffffffffffffffffff1673ffffffffffffffffffffffffffffffffffffffff16815260200190815260200160002060006101000a81548160ff02191690831515021790555061015061022960201b60201c565b73ffffffffffffffffffffffffffffffffffffffff168273ffffffffffffffffffffffffffffffffffffffff16847f2f8788117e7eff1d82e926ec794901d17c78024a50270940304540a733656f0d60405160405180910390a4600190506101b8565b600090505b92915050565b60006006600084815260200190815260200160002060000160008373ffffffffffffffffffffffffffffffffffffffff1673ffffffffffffffffffffffffffffffffffffffff16815260200190815260200160002060009054906101000a900460ff16905092915050565b600033905090565b600081519050919050565b7f4e487b7100000000000000000000000000000000000000000000000000000000600052604160045260246000fd5b7f4e487b7100000000000000000000000000000000000000000000000000000000600052602260045260246000fd5b600060028204905060018216806102b257607f821691505b6020821081036102c5576102c461026b565b5b50919050565b60008190508160005260206000209050919050565b60006020601f8301049050919050565b600082821b905092915050565b60006008830261032d7fffffffffffffffffffffffffffffffffffffffffffffffffffffffffffffffff826102f0565b61033786836102f0565b95508019841693508086168417925050509392505050565b6000819050919050565b6000819050919050565b600061037e6103796103748461034f565b610359565b61034f565b9050919050565b6000819050919050565b61039883610363565b6103ac6103a482610385565b8484546102fd565b825550505050565b600090565b6103c16103b4565b6103cc81848461038f565b505050565b5b818110156103f0576103e56000826103b9565b6001810190506103d2565b5050565b601f82111561043557610406816102cb565b61040f846102e0565b8101602085101561041e578190505b61043261042a856102e0565b8301826103d1565b50505b505050565b600082821c905092915050565b60006104586000198460080261043a565b1980831691505092915050565b60006104718383610447565b9150826002028217905092915050565b61048a82610231565b67ffffffffffffffff8111156104a3576104a261023c565b5b6104ad825461029a565b6104b88282856103f4565b600060209050601f8311600181146104eb57600084156104d9578287015190505b6104e38582610465565b86555061054b565b601f1984166104f9866102cb565b60005b82811015610521578489015182556001820191506020850194506020810190506104fc565b8683101561053e578489015161053a601f891682610447565b8355505b6001600288020188555050505b505050505050565b6125bf806105626000396000f3fe608060405234801561001057600080fd5b506004361061014d5760003560e01c806369e2f0fb116100c3578063a22cb4651161007c578063a22cb465146103ac578063b88d4fde146103c8578063c87b56dd146103e4578063d539139314610414578063d547741f14610432578063e985e9c51461044e5761014d565b806369e2f0fb146102d85780636a627842146102f457806370a082311461031057806391d148541461034057806395d89b4114610370578063a217fddf1461038e5761014d565b8063248a9ca311610115578063248a9ca3146102085780632f2ff15d1461023857806336568abe146102545780633dd1eb611461027057806342842e0e1461028c5780636352211e146102a85761014d565b806301ffc9a71461015257806306fdde0314610182578063081812fc146101a0578063095ea7b3146101d057806323b872dd146101ec575b600080fd5b61016c60048036038101906101679190611c9c565b61047e565b6040516101799190611ce4565b60405180910390f35b61018a610490565b6040516101979190611d8f565b60405180910390f35b6101ba60048036038101906101b59190611de7565b610522565b6040516101c79190611e55565b60405180910390f35b6101ea60048036038101906101e59190611e9c565b61053e565b005b61020660048036038101906102019190611edc565b610554565b005b610222600480360381019061021d9190611f65565b610656565b60405161022f9190611fa1565b60405180910390f35b610252600480360381019061024d9190611fbc565b610676565b005b61026e60048036038101906102699190611fbc565b610698565b005b61028a60048036038101906102859190611ffc565b610713565b005b6102a660048036038101906102a19190611edc565b61074f565b005b6102c260048036038101906102bd9190611de7565b61076f565b6040516102cf9190611e55565b60405180910390f35b6102f260048036038101906102ed9190611ffc565b610781565b005b61030e60048036038101906103099190611ffc565b6107bd565b005b61032a60048036038101906103259190611ffc565b610815565b6040516103379190612038565b60405180910390f35b61035a60048036038101906103559190611fbc565b6108cf565b6040516103679190611ce4565b60405180910390f35b61037861093a565b6040516103859190611d8f565b60405180910390f35b6103966109cc565b6040516103a39190611fa1565b60405180910390f35b6103c660048036038101906103c1919061207f565b6109d3565b005b6103e260048036038101906103dd91906121f4565b6109e9565b005b6103fe60048036038101906103f99190611de7565b610a06565b60405161040b9190611d8f565b60405180910390f35b61041c610a6f565b6040516104299190611fa1565b60405180910390f35b61044c60048036038101906104479190611fbc565b610a93565b005b61046860048036038101906104639190612277565b610ab5565b6040516104759190611ce4565b60405180910390f35b600061048982610b49565b9050919050565b60606000805461049f906122e6565b80601f01602080910402602001604051908101604052809291908181526020018280546104cb906122e6565b80156105185780601f106104ed57610100808354040283529160200191610518565b820191906000526020600020905b8154815290600101906020018083116104fb57829003601f168201915b5050505050905090565b600061052d82610bc3565b5061053782610c4b565b9050919050565b610550828261054b610c88565b610c90565b5050565b600073ffffffffffffffffffffffffffffffffffffffff168273ffffffffffffffffffffffffffffffffffffffff16036105c65760006040517f64a0ae920000000000000000000000000000000000000000000000000000000081526004016105bd9190611e55565b60405180910390fd5b60006105da83836105d5610c88565b610ca2565b90508373ffffffffffffffffffffffffffffffffffffffff168173ffffffffffffffffffffffffffffffffffffffff1614610650578382826040517f64283d7b00000000000000000000000000000000000000000000000000000000815260040161064793929190612317565b60405180910390fd5b50505050565b600060066000838152602001908152602001600020600101549050919050565b61067f82610656565b61068881610ebc565b6106928383610ed0565b50505050565b6106a0610c88565b73ffffffffffffffffffffffffffffffffffffffff168173ffffffffffffffffffffffffffffffffffffffff1614610704576040517f6697b23200000000000000000000000000000000000000000000000000000000815260040160405180910390fd5b61070e8282610fc2565b505050565b6000801b61072081610ebc565b61074a7f9f2df0fed2c77648de5860a4cc508cd0818c85b8b8a1ab4ceeef8d981c8956a683610ed0565b505050565b61076a838383604051806020016040528060008152506109e9565b505050565b600061077a82610bc3565b9050919050565b6000801b61078e81610ebc565b6107b87f9f2df0fed2c77648de5860a4cc508cd0818c85b8b8a1ab4ceeef8d981c8956a683610fc2565b505050565b7f9f2df0fed2c77648de5860a4cc508cd0818c85b8b8a1ab4ceeef8d981c8956a66107e781610ebc565b60006007549050600760008154809291906108019061237d565b919050555061081083826110b5565b505050565b60008073ffffffffffffffffffffffffffffffffffffffff168273ffffffffffffffffffffffffffffffffffffffff16036108885760006040517f89c62b6400000000000000000000000000000000000000000000000000000000815260040161087f9190611e55565b60405180910390fd5b600360008373ffffffffffffffffffffffffffffffffffffffff1673ffffffffffffffffffffffffffffffffffffffff168152602001908152602001600020549050919050565b60006006600084815260200190815260200160002060000160008373ffffffffffffffffffffffffffffffffffffffff1673ffffffffffffffffffffffffffffffffffffffff16815260200190815260200160002060009054906101000a900460ff16905092915050565b606060018054610949906122e6565b80601f0160208091040260200160405190810160405280929190818152602001828054610975906122e6565b80156109c25780601f10610997576101008083540402835291602001916109c2565b820191906000526020600020905b8154815290600101906020018083116109a557829003601f168201915b5050505050905090565b6000801b81565b6109e56109de610c88565b83836111ae565b5050565b6109f4848484610554565b610a008484848461131d565b50505050565b6060610a1182610bc3565b506000610a1c6114d4565b90506000815111610a3c5760405180602001604052806000815250610a67565b80610a46846114eb565b604051602001610a57929190612401565b6040516020818303038152906040525b915050919050565b7f9f2df0fed2c77648de5860a4cc508cd0818c85b8b8a1ab4ceeef8d981c8956a681565b610a9c82610656565b610aa581610ebc565b610aaf8383610fc2565b50505050565b6000600560008473ffffffffffffffffffffffffffffffffffffffff1673ffffffffffffffffffffffffffffffffffffffff16815260200190815260200160002060008373ffffffffffffffffffffffffffffffffffffffff1673ffffffffffffffffffffffffffffffffffffffff16815260200190815260200160002060009054906101000a900460ff16905092915050565b60007f7965db0b000000000000000000000000000000000000000000000000000000007bffffffffffffffffffffffffffffffffffffffffffffffffffffffff1916827bffffffffffffffffffffffffffffffffffffffffffffffffffffffff19161480610bbc5750610bbb826115b9565b5b9050919050565b600080610bcf8361169b565b9050600073ffffffffffffffffffffffffffffffffffffffff168173ffffffffffffffffffffffffffffffffffffffff1603610c4257826040517f7e273289000000000000000000000000000000000000000000000000000000008152600401610c399190612038565b60405180910390fd5b80915050919050565b60006004600083815260200190815260200160002060009054906101000a900473ffffffffffffffffffffffffffffffffffffffff169050919050565b600033905090565b610c9d83838360016116d8565b505050565b600080610cae8461169b565b9050600073ffffffffffffffffffffffffffffffffffffffff168373ffffffffffffffffffffffffffffffffffffffff1614610cf057610cef81848661189d565b5b600073ffffffffffffffffffffffffffffffffffffffff168173ffffffffffffffffffffffffffffffffffffffff1614610d8157610d326000856000806116d8565b6001600360008373ffffffffffffffffffffffffffffffffffffffff1673ffffffffffffffffffffffffffffffffffffffff168152602001908152602001600020600082825403925050819055505b600073ffffffffffffffffffffffffffffffffffffffff168573ffffffffffffffffffffffffffffffffffffffff1614610e04576001600360008773ffffffffffffffffffffffffffffffffffffffff1673ffffffffffffffffffffffffffffffffffffffff168152602001908152602001600020600082825401925050819055505b846002600086815260200190815260200160002060006101000a81548173ffffffffffffffffffffffffffffffffffffffff021916908373ffffffffffffffffffffffffffffffffffffffff160217905550838573ffffffffffffffffffffffffffffffffffffffff168273ffffffffffffffffffffffffffffffffffffffff167fddf252ad1be2c89b69c2b068fc378daa952ba7f163c4a11628f55a4df523b3ef60405160405180910390a4809150509392505050565b610ecd81610ec8610c88565b611961565b50565b6000610edc83836108cf565b610fb75760016006600085815260200190815260200160002060000160008473ffffffffffffffffffffffffffffffffffffffff1673ffffffffffffffffffffffffffffffffffffffff16815260200190815260200160002060006101000a81548160ff021916908315150217905550610f54610c88565b73ffffffffffffffffffffffffffffffffffffffff168273ffffffffffffffffffffffffffffffffffffffff16847f2f8788117e7eff1d82e926ec794901d17c78024a50270940304540a733656f0d60405160405180910390a460019050610fbc565b600090505b92915050565b6000610fce83836108cf565b156110aa5760006006600085815260200190815260200160002060000160008473ffffffffffffffffffffffffffffffffffffffff1673ffffffffffffffffffffffffffffffffffffffff16815260200190815260200160002060006101000a81548160ff021916908315150217905550611047610c88565b73ffffffffffffffffffffffffffffffffffffffff168273ffffffffffffffffffffffffffffffffffffffff16847ff6391f5c32d9c69d2a47ea670b442974b53935d1edc7fd64eb21e047a839171b60405160405180910390a4600190506110af565b600090505b92915050565b600073ffffffffffffffffffffffffffffffffffffffff168273ffffffffffffffffffffffffffffffffffffffff16036111275760006040517f64a0ae9200000000000000000000000000000000000000000000000000000000815260040161111e9190611e55565b60405180910390fd5b600061113583836000610ca2565b9050600073ffffffffffffffffffffffffffffffffffffffff168173ffffffffffffffffffffffffffffffffffffffff16146111a95760006040517f73c6ac6e0000000000000000000000000000000000000000000000000000000081526004016111a09190611e55565b60405180910390fd5b505050565b600073ffffffffffffffffffffffffffffffffffffffff168273ffffffffffffffffffffffffffffffffffffffff160361121f57816040517f5b08ba180000000000000000000000000000000000000000000000000000000081526004016112169190611e55565b60405180910390fd5b80600560008573ffffffffffffffffffffffffffffffffffffffff1673ffffffffffffffffffffffffffffffffffffffff16815260200190815260200160002060008473ffffffffffffffffffffffffffffffffffffffff1673ffffffffffffffffffffffffffffffffffffffff16815260200190815260200160002060006101000a81548160ff0219169083151502179055508173ffffffffffffffffffffffffffffffffffffffff168373ffffffffffffffffffffffffffffffffffffffff167f17307eab39ab6107e8899845ad3d59bd9653f200f220920489ca2b5937696c31836040516113109190611ce4565b60405180910390a3505050565b60008373ffffffffffffffffffffffffffffffffffffffff163b11156114ce578273ffffffffffffffffffffffffffffffffffffffff1663150b7a02611361610c88565b8685856040518563ffffffff1660e01b8152600401611383949392919061247a565b6020604051808303816000875af19250505080156113bf57506040513d601f19601f820116820180604052508101906113bc91906124db565b60015b611443573d80600081146113ef576040519150601f19603f3d011682016040523d82523d6000602084013e6113f4565b606091505b50600081510361143b57836040517f64a0ae920000000000000000000000000000000000000000000000000000000081526004016114329190611e55565b60405180910390fd5b805181602001fd5b63150b7a0260e01b7bffffffffffffffffffffffffffffffffffffffffffffffffffffffff1916817bffffffffffffffffffffffffffffffffffffffffffffffffffffffff1916146114cc57836040517f64a0ae920000000000000000000000000000000000000000000000000000000081526004016114c39190611e55565b60405180910390fd5b505b50505050565b606060405180602001604052806000815250905090565b6060600060016114fa846119b2565b01905060008167ffffffffffffffff811115611519576115186120c9565b5b6040519080825280601f01601f19166020018201604052801561154b5781602001600182028036833780820191505090505b509050600082602001820190505b6001156115ae578080600190039150507f3031323334353637383961626364656600000000000000000000000000000000600a86061a8153600a85816115a2576115a1612508565b5b04945060008503611559575b819350505050919050565b60007f80ac58cd000000000000000000000000000000000000000000000000000000007bffffffffffffffffffffffffffffffffffffffffffffffffffffffff1916827bffffffffffffffffffffffffffffffffffffffffffffffffffffffff1916148061168457507f5b5e139f000000000000000000000000000000000000000000000000000000007bffffffffffffffffffffffffffffffffffffffffffffffffffffffff1916827bffffffffffffffffffffffffffffffffffffffffffffffffffffffff1916145b80611694575061169382611b05565b5b9050919050565b60006002600083815260200190815260200160002060009054906101000a900473ffffffffffffffffffffffffffffffffffffffff169050919050565b80806117115750600073ffffffffffffffffffffffffffffffffffffffff168273ffffffffffffffffffffffffffffffffffffffff1614155b1561184557600061172184610bc3565b9050600073ffffffffffffffffffffffffffffffffffffffff168373ffffffffffffffffffffffffffffffffffffffff161415801561178c57508273ffffffffffffffffffffffffffffffffffffffff168173ffffffffffffffffffffffffffffffffffffffff1614155b801561179f575061179d8184610ab5565b155b156117e157826040517fa9fbf51f0000000000000000000000000000000000000000000000000000000081526004016117d89190611e55565b60405180910390fd5b811561184357838573ffffffffffffffffffffffffffffffffffffffff168273ffffffffffffffffffffffffffffffffffffffff167f8c5be1e5ebec7d5bd14f71427d1e84f3dd0314c0f7b2291e5b200ac8c7c3b92560405160405180910390a45b505b836004600085815260200190815260200160002060006101000a81548173ffffffffffffffffffffffffffffffffffffffff021916908373ffffffffffffffffffffffffffffffffffffffff16021790555050505050565b6118a8838383611b6f565b61195c57600073ffffffffffffffffffffffffffffffffffffffff168373ffffffffffffffffffffffffffffffffffffffff160361191d57806040517f7e2732890000000000000000000000000000000000000000000000000000000081526004016119149190612038565b60405180910390fd5b81816040517f177e802f000000000000000000000000000000000000000000000000000000008152600401611953929190612537565b60405180910390fd5b505050565b61196b82826108cf565b6119ae5780826040517fe2517d3f0000000000000000000000000000000000000000000000000000000081526004016119a5929190612560565b60405180910390fd5b5050565b600080600090507a184f03e93ff9f4daa797ed6e38ed64bf6a1f0100000000000000008310611a10577a184f03e93ff9f4daa797ed6e38ed64bf6a1f0100000000000000008381611a0657611a05612508565b5b0492506040810190505b6d04ee2d6d415b85acef81000000008310611a4d576d04ee2d6d415b85acef81000000008381611a4357611a42612508565b5b0492506020810190505b662386f26fc100008310611a7c57662386f26fc100008381611a7257611a71612508565b5b0492506010810190505b6305f5e1008310611aa5576305f5e1008381611a9b57611a9a612508565b5b0492506008810190505b6127108310611aca576127108381611ac057611abf612508565b5b0492506004810190505b60648310611aed5760648381611ae357611ae2612508565b5b0492506002810190505b600a8310611afc576001810190505b80915050919050565b60007f01ffc9a7000000000000000000000000000000000000000000000000000000007bffffffffffffffffffffffffffffffffffffffffffffffffffffffff1916827bffffffffffffffffffffffffffffffffffffffffffffffffffffffff1916149050919050565b60008073ffffffffffffffffffffffffffffffffffffffff168373ffffffffffffffffffffffffffffffffffffffff1614158015611c2757508273ffffffffffffffffffffffffffffffffffffffff168473ffffffffffffffffffffffffffffffffffffffff161480611be85750611be78484610ab5565b5b80611c2657508273ffffffffffffffffffffffffffffffffffffffff16611c0e83610c4b565b73ffffffffffffffffffffffffffffffffffffffff16145b5b90509392505050565b6000604051905090565b600080fd5b600080fd5b60007fffffffff0000000000000000000000000000000000000000000000000000000082169050919050565b611c7981611c44565b8114611c8457600080fd5b50565b600081359050611c9681611c70565b92915050565b600060208284031215611cb257611cb1611c3a565b5b6000611cc084828501611c87565b91505092915050565b60008115159050919050565b611cde81611cc9565b82525050565b6000602082019050611cf96000830184611cd5565b92915050565b600081519050919050565b600082825260208201905092915050565b60005b83811015611d39578082015181840152602081019050611d1e565b60008484015250505050565b6000601f19601f8301169050919050565b6000611d6182611cff565b611d6b8185611d0a565b9350611d7b818560208601611d1b565b611d8481611d45565b840191505092915050565b60006020820190508181036000830152611da98184611d56565b905092915050565b6000819050919050565b611dc481611db1565b8114611dcf57600080fd5b50565b600081359050611de181611dbb565b92915050565b600060208284031215611dfd57611dfc611c3a565b5b6000611e0b84828501611dd2565b91505092915050565b600073ffffffffffffffffffffffffffffffffffffffff82169050919050565b6000611e3f82611e14565b9050919050565b611e4f81611e34565b82525050565b6000602082019050611e6a6000830184611e46565b92915050565b611e7981611e34565b8114611e8457600080fd5b50565b600081359050611e9681611e70565b92915050565b60008060408385031215611eb357611eb2611c3a565b5b6000611ec185828601611e87565b9250506020611ed285828601611dd2565b9150509250929050565b600080600060608486031215611ef557611ef4611c3a565b5b6000611f0386828701611e87565b9350506020611f1486828701611e87565b9250506040611f2586828701611dd2565b9150509250925092565b6000819050919050565b611f4281611f2f565b8114611f4d57600080fd5b50565b600081359050611f5f81611f39565b92915050565b600060208284031215611f7b57611f7a611c3a565b5b6000611f8984828501611f50565b91505092915050565b611f9b81611f2f565b82525050565b6000602082019050611fb66000830184611f92565b92915050565b60008060408385031215611fd357611fd2611c3a565b5b6000611fe185828601611f50565b9250506020611ff285828601611e87565b9150509250929050565b60006020828403121561201257612011611c3a565b5b600061202084828501611e87565b91505092915050565b61203281611db1565b82525050565b600060208201905061204d6000830184612029565b92915050565b61205c81611cc9565b811461206757600080fd5b50565b60008135905061207981612053565b92915050565b6000806040838503121561209657612095611c3a565b5b60006120a485828601611e87565b92505060206120b58582860161206a565b9150509250929050565b600080fd5b600080fd5b7f4e487b7100000000000000000000000000000000000000000000000000000000600052604160045260246000fd5b61210182611d45565b810181811067ffffffffffffffff821117156121205761211f6120c9565b5b80604052505050565b6000612133611c30565b905061213f82826120f8565b919050565b600067ffffffffffffffff82111561215f5761215e6120c9565b5b61216882611d45565b9050602081019050919050565b82818337600083830152505050565b600061219761219284612144565b612129565b9050828152602081018484840111156121b3576121b26120c4565b5b6121be848285612175565b509392505050565b600082601f8301126121db576121da6120bf565b5b81356121eb848260208601612184565b91505092915050565b6000806000806080858703121561220e5761220d611c3a565b5b600061221c87828801611e87565b945050602061222d87828801611e87565b935050604061223e87828801611dd2565b925050606085013567ffffffffffffffff81111561225f5761225e611c3f565b5b61226b878288016121c6565b91505092959194509250565b6000806040838503121561228e5761228d611c3a565b5b600061229c85828601611e87565b92505060206122ad85828601611e87565b9150509250929050565b7f4e487b7100000000000000000000000000000000000000000000000000000000600052602260045260246000fd5b600060028204905060018216806122fe57607f821691505b602082108103612311576123106122b7565b5b50919050565b600060608201905061232c6000830186611e46565b6123396020830185612029565b6123466040830184611e46565b949350505050565b7f4e487b7100000000000000000000000000000000000000000000000000000000600052601160045260246000fd5b600061238882611db1565b91507fffffffffffffffffffffffffffffffffffffffffffffffffffffffffffffffff82036123ba576123b961234e565b5b600182019050919050565b600081905092915050565b60006123db82611cff565b6123e581856123c5565b93506123f5818560208601611d1b565b80840191505092915050565b600061240d82856123d0565b915061241982846123d0565b91508190509392505050565b600081519050919050565b600082825260208201905092915050565b600061244c82612425565b6124568185612430565b9350612466818560208601611d1b565b61246f81611d45565b840191505092915050565b600060808201905061248f6000830187611e46565b61249c6020830186611e46565b6124a96040830185612029565b81810360608301526124bb8184612441565b905095945050505050565b6000815190506124d581611c70565b92915050565b6000602082840312156124f1576124f0611c3a565b5b60006124ff848285016124c6565b91505092915050565b7f4e487b7100000000000000000000000000000000000000000000000000000000600052601260045260246000fd5b600060408201905061254c6000830185611e46565b6125596020830184612029565b9392505050565b60006040820190506125756000830185611e46565b6125826020830184611f92565b939250505056fea26469706673582212206bb6675cd3a8546b58fe35d83d7223d2a9708eb178317e1aec1ef34577d086bf64736f6c634300081a0033",
  "linkReferences": {},
  "deployedLinkReferences": {}
}